:020000040800F2
:1000000000280020990D0008210D0008290D000886
:10001000310D0008390D0008410D000800000000F6
:10002000000000000000000000000000490D000872
:10003000550D000800000000610D00086D0D00085E
:10004000E10D0008E10D0008E10D0008E10D0008D8
:10005000E10D0008E10D0008E10D0008E10D0008C8
:10006000E10D0008E10D0008E10D0008E10D0008B8
:10007000E10D0008E10D0008E10D0008E10D0008A8
:10008000E10D0008E10D0008E10D0008E10D000898
:10009000E10D0008E10D0008E10D0008E10D000888
:1000A000E10D0008E10D0008E10D0008E10D000878
:1000B000790D0008E10D000800000000E10D0008C6
:1000C000E10D00080000000000000000E10D000844
:1000D00000000000E10D0008E10D00080000000034
:1000E000E10D0008E10D0008E10D0008000000002E
:1000F0000000000000000000000000000000000000
:0C01000000000000000000005FF808F1A3
:10010C0010B5054C237833B9044B13B10448AFF345
:10011C0000800123237010BD10000020000000009F
:10012C00F037000808B5034B1BB103490348AFF384
:10013C00008008BD0000000014000020F03700080B
:10014C0080F0004002E000BF81F0004142001FBF80
:10015C005FEA410392EA030F7FEA226C7FEA236C89
:10016C006AD04FEA1262D2EB1363C1BFD21841407E
:10017C0048404140B8BF5B42192B88BF704710F014
:10018C00004F40F4000020F07F4018BF404211F0B7
:10019C00004F41F4000121F07F4118BF494292EA1F
:1001AC00030F3FD0A2F1010241FA03FC10EB0C004B
:1001BC00C3F1200301FA03F100F0004302D54942D8
:1001CC0060EB4000B0F5000F13D3B0F1807F06D385
:1001DC0040084FEA310102F10102FE2A51D2B1F17D
:1001EC00004F40EBC25008BF20F0010040EA030072
:1001FC007047490040EB0000013A28BFB0F5000FF2
:10020C00EDD2B0FA80FCACF1080CB2EB0C0200FAA7
:10021C000CF0AABF00EBC25052421843BCBFD040F6
:10022C001843704792F0000F81F4000106BF80F470
:10023C0000000132013BB5E74FEA41037FEA226C33
:10024C0018BF7FEA236C21D092EA030F04D092F0FE
:10025C00000F08BF0846704790EA010F1CBF002032
:10026C00704712F07F4F04D1400028BF40F000408F
:10027C00704712F100723CBF00F50000704700F0AF
:10028C00004343F0FE4040F4000070477FEA2262D6
:10029C0016BF08467FEA23630146420206BF5FEAA7
:1002AC00412390EA010F40F4800070474FF00003A7
:1002BC0004E000BF10F0004348BF40425FEA000C6E
:1002CC0008BF704743F0964301464FF000001CE016
:1002DC0050EA010208BF70474FF000030AE000BF6C
:1002EC0050EA010208BF704711F0004302D54042AA
:1002FC0061EB41015FEA010C02BF8446014600201C
:10030C0043F0B64308BFA3F18053A3F50003BCFA36
:10031C008CF2083AA3EBC25310DB01FA02FC6344E3
:10032C0000FA02FCC2F12002BCF1004F20FA02F2EA
:10033C0043EB020008BF20F00100704702F12002DD
:10034C0001FA02FCC2F1200250EA4C0021FA02F23E
:10035C0043EB020008BF20EADC7070474FF0FF0C43
:10036C001CEAD0521EBF1CEAD15392EA0C0F93EA3E
:10037C000C0F6FD01A4480EA010C400218BF5FEAE0
:10038C0041211ED04FF0006343EA501043EA511153
:10039C00A0FB01310CF00040B1F5000F3EBF49004D
:1003AC0041EAD3715B0040EA010062F17F02FD2A51
:1003BC001DD8B3F1004F40EBC25008BF20F0010034
:1003CC00704790F0000F0CF0004C08BF49024CEA4B
:1003DC00502040EA51207F3AC2BFD2F1FF0340EADD
:1003EC00C250704740F400004FF00003013A5DDC4E
:1003FC0012F1190FDCBF00F000407047C2F100028F
:10040C00410021FA02F1C2F1200200FA02FC5FEA7B
:10041C00310040F1000053EA4C0308BF20EADC70C5
:10042C00704792F0000F00F0004C02BF400010F437
:10043C00000F013AF9D040EA0C0093F0000F01F0E4
:10044C00004C02BF490011F4000F013BF9D041EA06
:10045C000C018FE70CEAD15392EA0C0F18BF93EA08
:10046C000C0F0AD030F0004C18BF31F0004CD8D132
:10047C0080EA010000F00040704790F0000F17BFB9
:10048C0090F0004F084691F0000F91F0004F14D0FF
:10049C0092EA0C0F01D142020FD193EA0C0F03D157
:1004AC004B0218BF084608D180EA010000F000405A
:1004BC0040F0FE4040F40000704740F0FE4040F435
:1004CC00400070474FF0FF0C1CEAD0521EBF1CEAD4
:1004DC00D15392EA0C0F93EA0C0F69D0A2EB0302F2
:1004EC0080EA010C49024FEA402037D04FF080538C
:1004FC0043EA111143EA10130CF000408B4238BF51
:10050C005B0042F17D024FF4000C8B4224BF5B1A5E
:10051C0040EA0C00B3EB510F24BFA3EB510340EAAC
:10052C005C00B3EB910F24BFA3EB910340EA9C005A
:10053C00B3EBD10F24BFA3EBD10340EADC001B01CA
:10054C0018BF5FEA1C1CE0D1FD2A3FF650AF8B426E
:10055C0040EBC25008BF20F0010070470CF0004C7B
:10056C004CEA50207F32C2BFD2F1FF0340EAC250A6
:10057C00704740F400004FF00003013A37E792F067
:10058C00000F00F0004C02BF400010F4000F013AC5
:10059C00F9D040EA0C0093F0000F01F0004C02BFC0
:1005AC00490011F4000F013BF9D041EA0C0195E729
:1005BC000CEAD15392EA0C0F08D142027FF47DAFC2
:1005CC0093EA0C0F7FF470AF084676E793EA0C0FB2
:1005DC0004D14B023FF44CAF08466EE730F0004CB0
:1005EC0018BF31F0004CCAD130F000427FF45CAF40
:1005FC0031F000437FF43CAF5FE700BF4FF0FF3CAE
:10060C0006E000BF4FF0010C02E000BF4FF0010C00
:10061C004DF804CD4FEA40024FEA41037FEA226CC9
:10062C0018BF7FEA236C11D001B052EA530C18BFEB
:10063C0090EA010F58BFB2EB030088BFC81738BF50
:10064C006FEAE17018BF40F0010070477FEA226C3E
:10065C0002D15FEA402C05D17FEA236CE4D15FEA3A
:10066C00412CE1D05DF8040B704700BF844608466E
:10067C006146FFE70FB5FFF7C9FF002848BF10F12F
:10068C00000F0FBD4DF808EDFFF7F4FF0CBF012074
:10069C0000205DF808FB00BF4DF808EDFFF7EAFFFE
:1006AC0034BF012000205DF808FB00BF4DF808EDB9
:1006BC00FFF7E0FF94BF012000205DF808FB00BFAE
:1006CC004DF808EDFFF7D2FF94BF012000205DF834
:1006DC0008FB00BF4DF808EDFFF7C8FF34BF012041
:1006EC0000205DF808FB00BF4FEA4002B2F1FE4F5C
:1006FC000FD34FF09E03B3EB12620DD94FEA0023D8
:10070C0043F0004310F0004F23FA02F018BF4042B0
:10071C0070474FF00000704712F1610F01D1420297
:10072C0005D110F0004008BF6FF0004070474FF04B
:10073C000000704742000ED2B2F1FE4F0BD34FF0C7
:10074C009E03B3EB126209D44FEA002343F000433B
:10075C0023FA02F070474FF00000704712F1610F5E
:10076C0001D1420202D14FF0FF3070474FF0000030
:10077C00704700BF80B584B000AF00F02DFB00F0D7
:10078C0057F800F085F900F095F800F035F90021E4
:10079C00214801F0DFFA00211F4802F0BBF81F4886
:1007AC0001F034FA0023FB6030E0F868FFF782FDBB
:1007BC0003461B491846FFF7D1FD03461949184655
:1007CC00FFF780FE0346BB60B86802F045FA0346AB
:1007DC004FF07E511846FFF7B9FC03464FF08041AD
:1007EC001846FFF76FFE03467B600F497868FFF7EA
:1007FC00B5FD03461846FFF79DFF034699B20B4A19
:10080C00FB6822F81310FB680133FB60FB68632B59
:10081C00CBDD00BFFDE700BF2C00002074000020E2
:10082C00D80FC9400000C84200E0C744C0000020F7
:10083C0080B590B000AF07F11803282200211846AC
:10084C0002F0DDF93B1D00221A605A609A60DA60F2
:10085C001A610223BB610123BB621023FB620223DA
:10086C007B630023BB634FF46013FB6307F1180336
:10087C00184600F09DFD0346002B01D000F08CF9CA
:10088C000F237B600223BB600023FB604FF480636B
:10089C003B6100237B613B1D0221184601F00AF8E5
:1008AC000346002B01D000F077F900BF4037BD465E
:1008BC0080BD000080B596B000AF07F14803002260
:1008CC001A605A609A60DA6007F1400300221A60DD
:1008DC005A6007F1240300221A605A609A60DA60A9
:1008EC001A615A619A613B1D20220021184602F0C0
:1008FC0086F93F4B3F4A1A603D4B00225A603C4BF5
:10090C0020229A603A4B4FF4C862DA60384B0022CE
:10091C001A61374B00225A61354B80229A61344858
:10092C0001F024F90346002B01D000F035F94FF407
:10093C008053BB6407F1480319462D4801F058FC5D
:10094C000346002B01D000F027F9294801F0AAF941
:10095C000346002B01D000F01FF900233B64002359
:10096C007B6407F140031946214802F069F80346FD
:10097C00002B01D000F010F960237B624FF4487318
:10098C00BB620023FB6200233B6300237B630023D9
:10099C00BB630023FB6307F12403002219461448B0
:1009AC0001F064FB0346002B01D000F0F5F80023A6
:1009BC007B600023BB600023FB6040233B61002372
:1009CC007B614FF40053BB614FF480433B623B1D92
:1009DC001946074802F08CF80346002B01D000F0B2
:1009EC00DBF8034800F048F900BF5837BD4680BD1E
:1009FC002C000020002C014080B586B000AF07F120
:100A0C00080300221A605A609A60DA603B460022A2
:100A1C001A605A601D4B4FF080421A601B4B3F22EC
:100A2C005A601A4B00229A60184BC722DA60174B97
:100A3C0000221A61154B00229A61144801F096F8B5
:100A4C000346002B01D000F0A7F84FF48053BB6095
:100A5C0007F1080319460D4801F0CAFB0346002BA9
:100A6C0001D000F099F800233B6000237B603B46EB
:100A7C001946064801F0E4FF0346002B01D000F0B4
:100A8C008BF800BF1837BD4680BD00BF7400002036
:100A9C0080B483B000AF0E4B9B690D4A43F0080342
:100AAC0093610B4B9B6903F008037B607B68084BDD
:100ABC009B69074A43F004039361054B9B6903F060
:100ACC0004033B603B6800BF0C37BD4680BC7047DD
:100ADC000010024080B485B000AF78607B681B6862
:100AEC00B3F1804F48D1274B1B889BB21A46264B3B
:100AFC0033F81230BB81BB89B3F5487F15D3BB8962
:100B0C00A3F548733B813B89204A1278D2B202FB91
:100B1C0003F31F4A82FB03125211DB17D31A3B81DA
:100B2C003B8903F54873FB8114E0BB89C3F548731B
:100B3C007B817B89154A1278D2B202FB03F3144AEB
:100B4C0082FB03125211DB17D31A7B817B89C3F50D
:100B5C004873FB810F4AFB8953630A4B1B889BB27A
:100B6C0001339AB2074B1A80064B1B889BB2632B3E
:100B7C0002D9044B00221A8000BF1437BD4680BC3A
:100B8C00704700BFBC000020C00000200000002007
:100B9C001F85EB51002C014080B400AF72B600BF32
:100BAC0000BFFDE780B485B000AF154B9B69144ABC
:100BBC0043F001039361124B9B6903F00103BB608B
:100BCC00BB680F4BDB690E4A43F08053D3610C4B6F
:100BDC00DB6903F080537B607B680A4B5B68FB60CE
:100BEC00FB6823F0E063FB60FB6843F08063FB6011
:100BFC00044AFB68536000BF1437BD4680BC704785
:100C0C00001002400000014080B584B000AF786055
:100C1C007B681B68164A93420CD1164B9B69154A8C
:100C2C0043F400639361134B9B6903F40063FB6013
:100C3C00FB6818E07B681B68B3F1804F13D10D4B38
:100C4C00DB690C4A43F00103D3610A4BDB6903F007
:100C5C000103BB60BB68002200211C2000F0F5F9E9
:100C6C001C2000F00EFA00BF1037BD4680BD00BF3F
:100C7C00002C01400010024080B588B000AF7860B5
:100C8C0007F1100300221A605A609A60DA607B68E0
:100C9C001B681C4A934231D11B4B9B691A4A43F087
:100CAC0008039361184B9B6903F00803FB60FB6816
:100CBC00154B9B69144A43F004039361124B9B69D7
:100CCC0003F00403BB60BB684FF400533B61022389
:100CDC007B610223FB6107F1100319460B4800F0FE
:100CEC00EBF94FF480733B6102237B610223FB61C0
:100CFC0007F110031946064800F0DEF900BF203753
:100D0C00BD4680BD002C014000100240000C01408B
:100D1C000008014080B400AF00BFFDE780B400AF15
:100D2C0000BFFDE780B400AF00BFFDE780B400AFAB
:100D3C0000BFFDE780B400AF00BFFDE780B400AF9B
:100D4C0000BFBD4680BC704780B400AF00BFBD463D
:100D5C0080BC704780B400AF00BFBD4680BC7047FC
:100D6C0080B500AF00F07EF800BF80BD80B500AF4D
:100D7C00024801F08BF800BF80BD00BF740000205A
:100D8C0080B400AF00BFBD4680BC7047FFF7F8FFD2
:100D9C000B480C490C4A002302E0D458C4500433CD
:100DAC00C4188C42F9D3094A094C002301E01360A2
:100DBC000432A242FBD301F02BFFFFF7DBFC7047A0
:100DCC000000002010000020043C0008100000204F
:100DDC008C010020FEE7000080B500AF084B1B68BB
:100DEC00074A43F010031360032000F023F90F208F
:100DFC0000F008F8FFF7D6FE0023184680BD00BFB0
:100E0C000020024080B582B000AF7860124B1A68A7
:100E1C00124B1B7819464FF47A73B3FBF1F3B2FB08
:100E2C00F3F3184600F03BF90346002B01D00123E5
:100E3C000EE07B680F2B0AD8002279684FF0FF3048
:100E4C0000F003F9064A7B681360002300E00123DD
:100E5C0018460837BD4680BD040000200C00002059
:100E6C000800002080B400AF054B1B781A46054BD8
:100E7C001B681344034A136000BFBD4680BC704717
:100E8C000C0000208801002080B400AF024B1B68CE
:100E9C001846BD4680BC70478801002080B485B0E0
:100EAC0000AF78607B6803F00703FB600C4BDB68DA
:100EBC00BB60BA684FF6FF031340BB60FB681A02B5
:100ECC00BB68134343F0BF6343F40033BB60044A75
:100EDC00BB68D36000BF1437BD4680BC704700BFF1
:100EEC0000ED00E080B400AF044BDB681B0A03F09C
:100EFC0007031846BD4680BC704700BF00ED00E0FC
:100F0C0080B483B000AF0346FB7197F90730002B18
:100F1C000BDBFB7903F01F02064997F907305B09DD
:100F2C00012000FA02F241F8232000BF0C37BD4625
:100F3C0080BC704700E100E080B483B000AF034692
:100F4C003960FB7197F90730002B0ADB3B68DAB28A
:100F5C000C4997F907301201D2B20B4483F80023E5
:100F6C000AE03B68DAB20849FB7903F00F03043B53
:100F7C001201D2B20B441A7600BF0C37BD4680BCAE
:100F8C00704700BF00E100E000ED00E080B489B0E4
:100F9C0000AFF860B9607A60FB6803F00703FB618F
:100FAC00FB69C3F10703042B28BF0423BB61FB6956
:100FBC000433062B02D9FB69033B00E000237B6161
:100FCC004FF0FF32BB6902FA03F3DA43BB681A40F5
:100FDC007B699A404FF0FF317B6901FA03F3D943E7
:100FEC007B680B40134318462437BD4680BC7047C2
:100FFC0080B582B000AF78607B68013BB3F1807F35
:10100C0001D301230FE00A4A7B68013B53600F2197
:10101C004FF0FF30FFF790FF054B00229A60044B16
:10102C0007221A60002318460837BD4680BD00BF52
:10103C0010E000E080B582B000AF78607868FFF710
:10104C002DFF00BF0837BD4680BD80B586B000AF10
:10105C000346B9607A60FB7300237B61FFF742FFA4
:10106C0078617A68B9687869FFF790FF024697F95A
:10107C000F3011461846FFF75FFF00BF1837BD460B
:10108C0080BD80B582B000AF0346FB7197F9073085
:10109C001846FFF735FF00BF0837BD4680BD80B549
:1010AC0082B000AF78607868FFF7A2FF034618465D
:1010BC000837BD4680BD000080B48BB000AF7860AF
:1010CC00396000237B6200233B6261E101227B6A71
:1010DC0002FA03F3FB613B681B68FA691340BB61BE
:1010EC00BA69FB699A4240F050813B685B68974A49
:1010FC0093425ED0954A934275D8954A934258D004
:10110C00934A93426FD8934A934252D0914A934256
:10111C0069D8914A93424CD08F4A934263D88F4AF4
:10112C00934246D08D4A93425DD8122B2AD8122B6B
:10113C0059D801A252F823F0BF11000899110008E8
:10114C00AB110008ED110008F3110008F3110008B1
:10115C00F3110008F3110008F3110008F311000853
:10116C00F3110008F3110008F3110008F311000843
:10117C00F3110008F3110008F3110008A111000885
:10118C00B5110008764A934213D02CE03B68DB681B
:10119C003B6229E03B68DB6804333B6224E03B683C
:1011AC00DB6808333B621FE03B68DB680C333B6257
:1011BC001AE03B689B68002B02D104233B6213E0CE
:1011CC003B689B68012B05D108233B627B68FA695D
:1011DC001A6109E008233B627B68FA695A6103E0F3
:1011EC0000233B6200E000BFBB69FF2B01D87B688A
:1011FC0001E07B6804337B61BB69FF2B02D87B6AFF
:10120C009B0002E07B6A083B9B003B617B691A6890
:10121C000F213B6901FA03F3DB431A40396A3B693E
:10122C0001FA03F31A437B691A603B685B6803F0AD
:10123C008053002B00F0A9804A4B9B69494A43F02C
:10124C0001039361474B9B6903F00103BB60BB68CF
:10125C00454A7B6A9B08023352F82330FB607B6A59
:10126C0003F003039B000F2202FA03F3DB43FA683B
:10127C001340FB607B683D4A93420DD07B683C4A2F
:10128C00934207D07B683B4A934201D1022304E08E
:10129C00032302E0012300E000237A6A02F0030238
:1012AC0092009340FA681343FB602F497B6A9B08BA
:1012BC000233FA6841F823203B685B6803F480131F
:1012CC00002B06D02C4B9A682B49BB6913438B60BF
:1012DC0006E0294B9A68BB69DB43274913408B60B6
:1012EC003B685B6803F40013002B06D0224BDA68D2
:1012FC002149BB691343CB6006E01F4BDA68BB691D
:10130C00DB431D491340CB603B685B6803F400333F
:10131C00002B06D0184B5A681749BB6913434B6016
:10132C0006E0154B5A68BB69DB43134913404B600D
:10133C003B685B6803F48033002B1FD00E4B1A689C
:10134C000D49BB6913430B601FE000BF0000321056
:10135C0000003110000022100000211000001210BB
:10136C000000111000100240000001400008014074
:10137C00000C014000100140000401400B4B1A68A6
:10138C00BB69DB43094913400B607B6A01337B6209
:10139C003B681A687B6A22FA03F3002B7FF496AE43
:1013AC0000BF00BF2C37BD4680BC70470004014015
:1013BC0080B586B000AF78607B68002B01D101232B
:1013CC0072E27B681B6803F00103002B00F087803E
:1013DC00924B5B6803F00C03042B0CD08F4B5B68B7
:1013EC0003F00C03082B12D18C4B5B6803F4803395
:1013FC00B3F5803F0BD1894B1B6803F40033002BF2
:10140C006CD07B685B68002B68D101234CE27B6855
:10141C005B68B3F5803F06D1804B1B687F4A43F471
:10142C00803313602EE07B685B68002B0CD17B4B08
:10143C001B687A4A23F480331360784B1B68774A15
:10144C0023F4802313601DE07B685B68B3F5A02F49
:10145C000CD1724B1B68714A43F4802313606F4BA1
:10146C001B686E4A43F4803313600BE06B4B1B68B4
:10147C006A4A23F480331360684B1B68674A23F471
:10148C00802313607B685B68002B13D0FFF7FCFC98
:10149C00386108E0FFF7F8FC02463B69D31A642B6D
:1014AC0001D9032300E25D4B1B6803F40033002BCE
:1014BC00F0D014E0FFF7E8FC386108E0FFF7E4FC3B
:1014CC0002463B69D31A642B01D90323ECE1534B3D
:1014DC001B6803F40033002BF0D100E000BF7B68E5
:1014EC001B6803F00203002B63D04C4B5B6803F0CA
:1014FC000C03002B0BD0494B5B6803F00C03082B3F
:10150C001CD1464B5B6803F48033002B16D1434B44
:10151C001B6803F00203002B05D07B681B69012BB1
:10152C0001D00123C0E13D4B1B6823F0F8027B681E
:10153C005B69DB00394913430B603AE07B681B693C
:10154C00002B20D0364B01221A60FFF79DFC38612E
:10155C0008E0FFF799FC02463B69D31A022B01D92C
:10156C000323A1E12D4B1B6803F00203002BF0D0E9
:10157C002A4B1B6823F0F8027B685B69DB00274968
:10158C0013430B6015E0264B00221A60FFF77CFC1E
:10159C00386108E0FFF778FC02463B69D31A022B4E
:1015AC0001D9032380E11D4B1B6803F00203002BC0
:1015BC00F0D17B681B6803F00803002B3AD07B68E2
:1015CC009B69002B19D0174B01221A60FFF75CFCAA
:1015DC00386108E0FFF758FC02463B69D31A022B2E
:1015EC0001D9032360E10D4B5B6A03F00203002B6E
:1015FC00F0D0012000F09CFA1CE00A4B00221A608B
:10160C00FFF742FC38610FE0FFF73EFC02463B69F6
:10161C00D31A022B08D9032346E100BF0010024065
:10162C000000424280044242924B5B6A03F0020388
:10163C00002BE9D17B681B6803F00403002B00F03E
:10164C00A6800023FB758B4BDB6903F08053002BCA
:10165C000DD1884BDB69874A43F08053D361854BAE
:10166C00DB6903F08053BB60BB680123FB75824BC5
:10167C001B6803F48073002B18D17F4B1B687E4AC8
:10168C0043F480731360FFF7FFFB386108E0FFF74A
:10169C00FBFB02463B69D31A642B01D9032303E1FC
:1016AC00754B1B6803F48073002BF0D07B68DB68F0
:1016BC00012B06D16F4B1B6A6E4A43F00103136278
:1016CC002DE07B68DB68002B0CD16A4B1B6A694AE6
:1016DC0023F001031362674B1B6A664A23F0040371
:1016EC0013621CE07B68DB68052B0CD1614B1B6A19
:1016FC00604A43F0040313625E4B1B6A5D4A43F07D
:10170C00010313620BE05B4B1B6A5A4A23F0010383
:10171C001362584B1B6A574A23F0040313627B680D
:10172C00DB68002B15D0FFF7AFFB38610AE0FFF741
:10173C00ABFB02463B69D31A41F28832934201D982
:10174C000323B1E04B4B1B6A03F00203002BEED0DA
:10175C0014E0FFF799FB38610AE0FFF795FB0246AE
:10176C003B69D31A41F28832934201D903239BE09F
:10177C00404B1B6A03F00203002BEED1FB7D012BC7
:10178C0005D13C4BDB693B4A23F08053D3617B682A
:10179C00DB69002B00F08780364B5B6803F00C0391
:1017AC00082B61D07B68DB69022B46D1334B0022BE
:1017BC001A60FFF769FB386108E0FFF765FB02462A
:1017CC003B69D31A022B01D903236DE0294B1B680B
:1017DC0003F00073002BF0D17B681B6AB3F5803FDC
:1017EC0008D1244B5B6823F400327B689B68214949
:1017FC0013434B601F4B5B6823F474127B68196AAC
:10180C007B685B6A0B431B4913434B601B4B0122E8
:10181C001A60FFF739FB386108E0FFF735FB024629
:10182C003B69D31A022B01D903233DE0114B1B68F2
:10183C0003F00073002BF0D035E0104B00221A603F
:10184C00FFF722FB386108E0FFF71EFB02463B69FD
:10185C00D31A022B01D9032326E0064B1B6803F095
:10186C000073002BF0D11EE07B68DB69012B07D1E4
:10187C00012319E000100240007000406000424259
:10188C000B4B5B68FB60FB6803F480327B681B6A64
:10189C009A4206D1FB6803F470127B685B6A9A4229
:1018AC0001D0012300E0002318461837BD4680BD47
:1018BC000010024080B584B000AF786039607B685E
:1018CC00002B01D10123D0E06A4B1B6803F0070306
:1018DC003A689A4210D9674B1B6823F00702654996
:1018EC003B6813430B60634B1B6803F007033A68B8
:1018FC009A4201D00123B8E07B681B6803F0020315
:10190C00002B20D07B681B6803F00403002B05D050
:10191C00594B5B68584A43F4E06353607B681B681F
:10192C0003F00803002B05D0534B5B68524A43F479
:10193C0060535360504B5B6823F0F0027B689B68EC
:10194C004D4913434B607B681B6803F00103002B6C
:10195C0040D07B685B68012B07D1474B1B6803F4B5
:10196C000033002B15D101237FE07B685B68022BD1
:10197C0007D1414B1B6803F00073002B09D10123E5
:10198C0073E03D4B1B6803F00203002B01D10123D4
:10199C006BE0394B5B6823F003027B685B6836496C
:1019AC0013434B60FFF770FAF8600AE0FFF76CFA2C
:1019BC000246FB68D31A41F28832934201D90323C1
:1019CC0053E02D4B5B6803F00C027B685B689B005B
:1019DC009A42EBD1274B1B6803F007033A689A42F3
:1019EC0010D2244B1B6823F0070222493B68134397
:1019FC000B60204B1B6803F007033A689A4201D036
:101A0C00012332E07B681B6803F00403002B08D031
:101A1C00194B5B6823F4E0627B68DB68164913435F
:101A2C004B607B681B6803F00803002B09D0124B3A
:101A3C005B6823F460527B681B69DB000E4913431F
:101A4C004B6000F021F802460B4B5B681B0903F05E
:101A5C000F030A49CB5C22FA03F3094A1360094BC2
:101A6C001B681846FFF7CEF9002318461037BD4601
:101A7C0080BD00BF00200240001002400838000862
:101A8C00040000200800002080B487B000AF0023C1
:101A9C00FB600023BB6000237B6100237B60002381
:101AAC003B611E4B5B68FB60FB6803F00C03042B73
:101ABC0002D0082B03D027E0194B3B6127E0FB68D1
:101ACC009B0C03F00F03174AD35C7B60FB6803F499
:101ADC008033002B10D0114B5B685B0C03F00103BF
:101AEC00114AD35CBB607B680D4A03FB02F2BB68F6
:101AFC00B2FBF3F37B6104E07B680C4A02FB03F35B
:101B0C007B617B693B6102E0054B3B6100BF3B693C
:101B1C0018461C37BD4680BC704700BF0010024001
:101B2C0000127A00183800082838000800093D0017
:101B3C0080B485B000AF78600A4B1B680A4AA2FBE0
:101B4C0003235B0A7A6802FB03F3FB6000BFFB68AC
:101B5C005A1EFA60002BF9D100BF00BF1437BD46E6
:101B6C0080BC704704000020D34D621080B582B059
:101B7C0000AF78607B68002B01D1012341E07B68CA
:101B8C0093F83D30DBB2002B06D17B68002283F842
:101B9C003C207868FFF738F87B68022283F83D20F8
:101BAC007B681A687B6804331946104600F00CFCFD
:101BBC007B68012283F846207B68012283F83E2053
:101BCC007B68012283F83F207B68012283F8402048
:101BDC007B68012283F841207B68012283F8422034
:101BEC007B68012283F843207B68012283F8442020
:101BFC007B68012283F845207B68012283F83D2015
:101C0C00002318460837BD4680BD000080B485B05F
:101C1C0000AF78607B6893F83D30DBB2012B01D0CC
:101C2C00012335E07B68022283F83D207B681B682A
:101C3C00DA687B681B6842F00102DA607B681B681B
:101C4C00164A934209D07B681B68B3F1804F04D0CD
:101C5C007B681B68124A934211D17B681B689B6896
:101C6C0003F00703FB60FB68062B10D07B681B6836
:101C7C001A687B681B6842F001021A6007E07B68F7
:101C8C001B681A687B681B6842F001021A6000230B
:101C9C0018461437BD4680BC704700BF002C01406D
:101CAC000004004080B582B000AF78607B68002BE8
:101CBC0001D1012341E07B6893F83D30DBB2002B6E
:101CCC0006D17B68002283F83C20786800F039F854
:101CDC007B68022283F83D207B681A687B6804339A
:101CEC001946104600F070FB7B68012283F84620F1
:101CFC007B68012283F83E207B68012283F83F2019
:101D0C007B68012283F840207B68012283F8412004
:101D1C007B68012283F842207B68012283F84320F0
:101D2C007B68012283F844207B68012283F84520DC
:101D3C007B68012283F83D20002318460837BD46F6
:101D4C0080BD80B483B000AF786000BF0C37BD4657
:101D5C0080BC704780B584B000AF786039603B6858
:101D6C00002B09D17B6893F83E30DBB2012B14BFFA
:101D7C0001230023DBB222E03B68042B09D17B68F2
:101D8C0093F83F30DBB2012B14BF01230023DBB2ED
:101D9C0015E03B68082B09D17B6893F84030DBB227
:101DAC00012B14BF01230023DBB208E07B6893F8FE
:101DBC004130DBB2012B14BF01230023DBB2002B1B
:101DCC0001D0012359E03B68002B04D17B6802222F
:101DDC0083F83E2013E03B68042B04D17B6802227D
:101DEC0083F83F200BE03B68082B04D17B68022270
:101DFC0083F8402003E07B68022283F841207B6853
:101E0C001B6801223968184600F060FD7B681B686E
:101E1C001C4A934207D17B681B685A6C7B681B6811
:101E2C0042F400425A647B681B68164A934209D0FC
:101E3C007B681B68B3F1804F04D07B681B68124A27
:101E4C00934211D17B681B689B6803F00703FB600E
:101E5C00FB68062B10D07B681B681A687B681B68B4
:101E6C0042F001021A6007E07B681B681A687B6805
:101E7C001B6842F001021A60002318461037BD4659
:101E8C0080BD00BF002C01400004004080B584B030
:101E9C0000AF78607B681B68DB68FB607B681B6845
:101EAC001B69BB60BB6803F00203002B20D0FB68EE
:101EBC0003F00203002B1BD07B681B686FF002023F
:101ECC001A617B6801221A777B681B689B6903F097
:101EDC000303002B03D0786800F05AFA05E0786809
:101EEC0000F04DFA786800F05CFA7B6800221A77F3
:101EFC00BB6803F00403002B20D0FB6803F0040341
:101F0C00002B1BD07B681B686FF004021A617B6886
:101F1C0002221A777B681B689B6903F44073002BC1
:101F2C0003D0786800F034FA05E0786800F027FAFE
:101F3C00786800F036FA7B6800221A77BB6803F0E9
:101F4C000803002B20D0FB6803F00803002B1BD0E8
:101F5C007B681B686FF008021A617B6804221A7791
:101F6C007B681B68DB6903F00303002B03D07868E4
:101F7C0000F00EFA05E0786800F001FA786800F0DD
:101F8C0010FA7B6800221A77BB6803F01003002B51
:101F9C0020D0FB6803F01003002B1BD07B681B6860
:101FAC006FF010021A617B6808221A777B681B6835
:101FBC00DB6903F44073002B03D0786800F0E8F978
:101FCC0005E0786800F0DBF9786800F0EAF97B68E6
:101FDC0000221A77BB6803F00103002B0CD0FB68BE
:101FEC0003F00103002B07D07B681B686FF0010224
:101FFC001A617868FEF76EFDBB6803F08003002B56
:10200C000CD0FB6803F08003002B07D07B681B68A7
:10201C006FF080021A61786800F0C4FDBB6803F0B1
:10202C004003002B0CD0FB6803F04003002B07D0BF
:10203C007B681B686FF040021A61786800F0BAF98F
:10204C00BB6803F02003002B0CD0FB6803F02003CB
:10205C00002B07D07B681B686FF020021A61786830
:10206C0000F097FD00BF1037BD4680BD80B586B02F
:10207C0000AFF860B9607A600023FB75FB6893F8D9
:10208C003C30012B01D10223AEE0FB68012283F826
:10209C003C207B680C2B00F29F8001A252F823F0AD
:1020AC00E1200008E5210008E5210008E5210008F1
:1020BC0021210008E5210008E5210008E5210008A0
:1020CC0063210008E5210008E5210008E52100084E
:1020DC00A3210008FB681B68B968184600F0D8F902
:1020EC00FB681B689A69FB681B6842F008029A61DE
:1020FC00FB681B689A69FB681B6822F004029A61F2
:10210C00FB681B689969BB681A69FB681B680A4302
:10211C009A6164E0FB681B68B968184600F01EFA07
:10212C00FB681B689A69FB681B6842F400629A6141
:10213C00FB681B689A69FB681B6822F480629A61D1
:10214C00FB681B689969BB681B691A02FB681B68F2
:10215C000A439A6143E0FB681B68B968184600F0B3
:10216C0067FAFB681B68DA69FB681B6842F00802B7
:10217C00DA61FB681B68DA69FB681B6822F00402F1
:10218C00DA61FB681B68D969BB681A69FB681B6854
:10219C000A43DA6123E0FB681B68B968184600F053
:1021AC00B1FAFB681B68DA69FB681B6842F40062D1
:1021BC00DA61FB681B68DA69FB681B6822F48062D1
:1021CC00DA61FB681B68D969BB681B691A02FB687A
:1021DC001B680A43DA6102E00123FB7500BFFB6850
:1021EC00002283F83C20FB7D18461837BD4680BD85
:1021FC0080B584B000AF786039600023FB737B68D6
:10220C0093F83C30012B01D10223B4E07B6801220E
:10221C0083F83C207B68022283F83D207B681B6896
:10222C009B68BB60BB6823F07703BB60BB6823F47F
:10223C007F43BB607B681B68BA689A603B681B680D
:10224C00B3F5005F3ED0B3F5005F00F28780B3F5C5
:10225C00805F00F08680B3F5805F7FD8702B1AD03A
:10226C00702B7BD8602B50D0602B77D8502B3CD068
:10227C00502B73D8402B58D0402B6FD8302B64D0B8
:10228C00302B6BD8202B60D0202B67D8002B5CD048
:10229C00102B5AD062E07B6818683B6899683B68E1
:1022AC005A683B68DB6800F0F2FA7B681B689B6835
:1022BC00BB60BB6843F07703BB607B681B68BA6884
:1022CC009A604FE07B6818683B6899683B685A686D
:1022DC003B68DB6800F0DBFA7B681B689A687B68FC
:1022EC001B6842F480429A603CE07B6818683B684B
:1022FC0059683B68DB681A4600F052FA7B681B6829
:10230C005021184600F0A9FA2CE07B6818683B684D
:10231C0059683B68DB681A4600F070FA7B681B68EA
:10232C006021184600F099FA1CE07B6818683B683D
:10233C0059683B68DB681A4600F032FA7B681B6808
:10234C004021184600F089FA0CE07B681A683B685B
:10235C001B681946104600F080FA03E00123FB735A
:10236C0000E000BF7B68012283F83D207B680022DF
:10237C0083F83C20FB7B18461037BD4680BD80B4EB
:10238C0083B000AF786000BF0C37BD4680BC70478F
:10239C0080B483B000AF786000BF0C37BD4680BC02
:1023AC00704780B483B000AF786000BF0C37BD4677
:1023BC0080BC704780B483B000AF786000BF0C372E
:1023CC00BD4680BC7047000080B485B000AF78601B
:1023DC0039607B681B68FB607B682B4A934207D093
:1023EC007B68B3F1804F03D07B68284A934208D1B5
:1023FC00FB6823F07003FB603B685B68FA6813436F
:10240C00FB607B68204A934207D07B68B3F1804F16
:10241C0003D07B681D4A934208D1FB6823F44073B8
:10242C00FB603B68DB68FA681343FB60FB6823F0D6
:10243C0080023B685B691343FB607B68FA681A6037
:10244C003B689A687B68DA623B681A687B689A62B8
:10245C007B680D4A934203D13B681A697B681A6307
:10246C007B6801225A617B681B6903F00103002B16
:10247C0005D07B681B6923F001027B681A6100BFE1
:10248C001437BD4680BC7047002C0140000400404E
:10249C0080B487B000AF786039607B681B6A7B6161
:1024AC007B681B6A23F001027B681A627B685B689D
:1024BC003B617B689B69FB60FB6823F07003FB60EE
:1024CC00FB6823F00303FB603B681B68FA6813434B
:1024DC00FB607B6923F002037B613B689B687A6934
:1024EC0013437B617B681C4A93420CD17B6923F0BC
:1024FC0008037B613B68DB687A6913437B617B690A
:10250C0023F004037B617B68134A934211D13B692E
:10251C0023F480733B613B6923F400733B613B689C
:10252C005B693A6913433B613B689B693A691343A6
:10253C003B617B683A695A607B68FA689A613B68D0
:10254C005A687B685A637B687A691A6200BF1C37C9
:10255C00BD4680BC704700BF002C014080B487B0E2
:10256C0000AF786039607B681B6A7B617B681B6A93
:10257C0023F010027B681A627B685B683B617B68A6
:10258C009B69FB60FB6823F4E043FB60FB6823F46E
:10259C004073FB603B681B681B02FA681343FB60CB
:1025AC007B6923F020037B613B689B681B017A6984
:1025BC0013437B617B681D4A93420DD17B6923F0E9
:1025CC0080037B613B68DB681B017A6913437B6189
:1025DC007B6923F040037B617B68144A934213D1DF
:1025EC003B6923F480633B613B6923F400633B61EB
:1025FC003B685B699B003A6913433B613B689B6991
:10260C009B003A6913433B617B683A695A607B686B
:10261C00FA689A613B685A687B689A637B687A6946
:10262C001A6200BF1C37BD4680BC7047002C0140AD
:10263C0080B487B000AF786039607B681B6A7B61BF
:10264C007B681B6A23F480727B681A627B685B6808
:10265C003B617B68DB69FB60FB6823F07003FB600C
:10266C00FB6823F00303FB603B681B68FA681343A9
:10267C00FB607B6923F400737B613B689B681B02E6
:10268C007A6913437B617B681D4A93420DD17B6948
:10269C0023F400637B613B68DB681B027A6913439C
:1026AC007B617B6923F480637B617B68144A934272
:1026BC0013D13B6923F480533B613B6923F40053F2
:1026CC003B613B685B691B013A6913433B613B68A7
:1026DC009B691B013A6913433B617B683A695A60F9
:1026EC007B68FA68DA613B685A687B68DA637B68F6
:1026FC007A691A6200BF1C37BD4680BC704700BFA8
:10270C00002C014080B487B000AF786039607B68E2
:10271C001B6A3B617B681B6A23F480527B681A62DC
:10272C007B685B687B617B68DB69FB60FB6823F41F
:10273C00E043FB60FB6823F44073FB603B681B6861
:10274C001B02FA681343FB603B6923F400533B61A3
:10275C003B689B681B033A6913433B617B680F4AD8
:10276C00934209D17B6923F480437B613B685B69AD
:10277C009B017A6913437B617B687A695A607B6839
:10278C00FA68DA613B685A687B681A647B683A6954
:10279C001A6200BF1C37BD4680BC7047002C01403C
:1027AC0080B487B000AFF860B9607A60FB681B6AD0
:1027BC007B61FB681B6A23F00102FB681A62FB68F1
:1027CC009B693B613B6923F0F0033B617B681B0118
:1027DC003A6913433B617B6923F00A037B617A6995
:1027EC00BB6813437B61FB683A699A61FB687A6941
:1027FC001A6200BF1C37BD4680BC704780B487B0DE
:10280C0000AFF860B9607A60FB681B6A7B61FB689B
:10281C001B6A23F01002FB681A62FB689B693B6120
:10282C003B6923F470433B617B681B033A69134398
:10283C003B617B6923F0A0037B61BB681B017A6958
:10284C0013437B61FB683A699A61FB687A691A6287
:10285C0000BF1C37BD4680BC704780B485B000AF4C
:10286C00786039607B689B68FB60FB6823F07003C1
:10287C00FB603A68FB68134343F00703FB607B681B
:10288C00FA689A6000BF1437BD4680BC704780B4AC
:10289C0087B000AFF860B9607A603B60FB689B68FA
:1028AC007B617B6923F47F437B613B681A027B6805
:1028BC001A43BB6813437A6913437B61FB687A69DB
:1028CC009A6000BF1C37BD4680BC704780B487B08F
:1028DC0000AFF860B9607A60BB6803F01F03012297
:1028EC0002FA03F37B61FB681A6A7B69DB431A40CB
:1028FC00FB681A62FB681A6ABB6803F01F037968ED
:10290C0001FA03F31A43FB681A6200BF1C37BD4679
:10291C0080BC704780B584B000AF786039603B688C
:10292C00002B09D17B6893F84230DBB2012B14BF2A
:10293C0001230023DBB222E03B68042B09D17B6826
:10294C0093F84330DBB2012B14BF01230023DBB21D
:10295C0015E03B68082B09D17B6893F84430DBB257
:10296C00012B14BF01230023DBB208E07B6893F832
:10297C004530DBB2012B14BF01230023DBB2002B4B
:10298C0001D0012354E03B68002B04D17B68022268
:10299C0083F8422013E03B68042B04D17B680222AD
:1029AC0083F843200BE03B68082B04D17B680222A0
:1029BC0083F8442003E07B68022283F845207B687F
:1029CC001B6804223968184600F0F5F87B681B6810
:1029DC005A6C7B681B6842F400425A647B681B6823
:1029EC00154A934209D07B681B68B3F1804F04D021
:1029FC007B681B68114A934211D17B681B689B68EA
:102A0C0003F00703FB60FB68062B10D07B681B6888
:102A1C001A687B681B6842F001021A6007E07B6849
:102A2C001B681A687B681B6842F001021A6000235D
:102A3C0018461037BD4680BD002C014000040040F4
:102A4C0080B485B000AF786039607B6893F83C3017
:102A5C00012B01D1022341E07B68012283F83C2049
:102A6C007B68022283F83D207B681B685B68FB60F7
:102A7C007B681B689B68BB60FB6823F07003FB6082
:102A8C003B681B68FA681343FB607B681B68FA6839
:102A9C005A607B681B68144A934209D07B681B6898
:102AAC00B3F1804F04D07B681B68104A93420CD161
:102ABC00BB6823F08003BB603B685B68BA68134358
:102ACC00BB607B681B68BA689A607B68012283F8DC
:102ADC003D207B68002283F83C20002318461437E5
:102AEC00BD4680BC704700BF002C01400004004074
:102AFC0080B485B000AF786039600023FB607B68E0
:102B0C0093F83C30012B01D102233DE07B6801227C
:102B1C0083F83C20FB6823F0FF023B68DB6813431F
:102B2C00FB60FB6823F440723B689B681343FB60BB
:102B3C00FB6823F480623B685B681343FB60FB68B3
:102B4C0023F400623B681B681343FB60FB6823F4AF
:102B5C0080523B681B691343FB60FB6823F40052F3
:102B6C003B685B691343FB60FB6823F480423B6862
:102B7C00DB691343FB607B681B68FA685A647B68EB
:102B8C00002283F83C20002318461437BD4680BC35
:102B9C00704780B483B000AF786000BF0C37BD467F
:102BAC0080BC704780B483B000AF786000BF0C3736
:102BBC00BD4680BC704780B487B000AFF860B96088
:102BCC007A60BB6803F00F03042202FA03F37B6103
:102BDC00FB681A6A7B69DB431A40FB681A62FB6864
:102BEC001A6ABB6803F00F03796801FA03F31A43FE
:102BFC00FB681A6200BF1C37BD4680BC7047034699
:102C0C000244934200D1704703F8011BF9E700001E
:102C1C0070B500260C4D0D4C641BA410A64209D1B6
:102C2C0000F0E0FD00260A4D0A4C641BA410A642DD
:102C3C0005D170BD55F8043B98470136EEE755F8C1
:102C4C00043B98470136F2E7FC3B0008FC3B0008CC
:102C5C00FC3B0008003C000807B51B4A20F0004371
:102C6C009342014606D80022002103B05DF804EB24
:102C7C0000F0ACB8B3F1FF4F04D3FDF765FA03B025
:102C8C005DF804FB694600F017F900F00300012819
:102C9C0008D002280BD090B901220199009800F0BD
:102CAC0095F8ECE70199009800F010F8E7E701229D
:102CBC000199009800F08AF800F10040DFE70199D3
:102CCC00009800F003F8F7E7D80F493F2DE9F041E1
:102CDC0020F00045B5F1485F0646884603D2FDF763
:102CEC0003FD00285CD031463046FDF737FB4FF032
:102CFC007C510446FDF732FB2B4907462046FDF775
:102D0C002DFB2A49FDF722FA2146FDF727FB28491E
:102D1C00FDF71AFA2146FDF721FB2649FDF716FAB5
:102D2C002146FDF71BFB2449FDF70EFA2146FDF762
:102D3C0015FB2249FDF70AFA2146FDF70FFB214648
:102D4C00FDF70CFB414604463046FDF707FB0146F8
:102D5C002046FDF7F9F91A4B04469D420AD8014664
:102D6C003846FDF7F1F901464FF07E50FDF7ECF9CE
:102D7C00BDE8F081134B4FF07E509D428CBF124D3D
:102D8C0005F17F452946FDF7DFF929460646384609
:102D9C00FDF7DAF92146FDF7D7F901463046E5E7AC
:102DAC004FF07E50E4E700BF4ED747ADF6740F31BD
:102DBC007CF29334010DD037610BB63AABAA2A3DA5
:102DCC009999993E0000483F0000903E2DE9F84348
:102DDC0020F00043B3F1485F04460F46914603D2FE
:102DEC00FDF782FC002835D021462046FDF7B6FAC7
:102DFC00054601462046FDF7B1FA29490646284604
:102E0C00FDF7ACFA2749FDF79FF92946FDF7A6FA1D
:102E1C002549FDF79BF92946FDF7A0FA2349FDF753
:102E2C0093F92946FDF79AFA2149FDF78FF9804667
:102E3C00B9F1000F11D101462846FDF78FFA1D4953
:102E4C00FDF782F93146FDF789FA01462046FDF778
:102E5C007DF904462046BDE8F8834FF07C51384696
:102E6C00FDF77CFA414681463046FDF777FA01467C
:102E7C004846FDF769F92946FDF770FA3946FDF722
:102E8C0063F90C4905463046FDF768FA01462846B9
:102E9C00FDF75CF901462046FDF756F9D9E700BF6E
:102EAC00D3C92E2F342FD7321BEF3836010D5039A2
:102EBC008988083CABAA2A3E2DE9F04FA44A20F0A1
:102ECC00004890450C46824687B004D80023086021
:102EDC004B6000251DE09F4A90454FD820F00045DF
:102EEC0000289D499D4F25F00F0524DDFDF72CF999
:102EFC00BD42064611D09A49FDF726F90146054612
:102F0C003046FDF721F99649FDF71EF9256001259C
:102F1C006060284607B0BDE8F08F9249FDF714F9C0
:102F2C0091490646FDF710F9014605463046FDF776
:102F3C000BF98D49E8E7FDF709F9BD4206460FD0BC
:102F4C008749FDF703F9014605463046FDF7FCF8C5
:102F5C008349FDF7FBF8256060604FF0FF35D8E73B
:102F6C008049FDF7F3F880490646FDF7EFF8014676
:102F7C0005463046FDF7E8F87B49EAE77B4A904581
:102F8C0000F2958000F0FEF879490646FDF7E6F967
:102F9C004FF07C51FDF7DAF8FDF7A6FB0546FDF77F
:102FAC0089F96D498146FDF7D9F901463046FDF79F
:102FBC00CBF86B4907464846FDF7D0F91F2D06465E
:102FCC000EDC6C4A691E52F821202AF0004323F0D3
:102FDC00FF03934204D031463846FDF7B5F80BE0B9
:102FEC0031463846FDF7B0F8C0F3C753C3EBD8539E
:102FFC00082B4FEAE85B01DC206026E05949484683
:10300C00FDF7ACF9064601463846FDF79DF801463A
:10301C0080463846FDF798F83146FDF795F8064698
:10302C0051494846FDF79AF93146FDF78DF80146AE
:10303C0006464046FDF788F8C0F3C753ABEB030BCD
:10304C00BBF1190F18DC47462060D4F800803846D5
:10305C004146FDF779F83146FDF776F8BAF1000FE5
:10306C006060BFF656AF08F1004800F10040C4F8AC
:10307C00008060606D424CE73F494846FDF76EF9B1
:10308C00064601464046FDF75FF8014607464046B6
:10309C00FDF75AF83146FDF757F8064637494846CA
:1030AC00FDF75CF93146FDF74FF8064693E7B8F1AA
:1030BC00FF4F05D30146FDF747F86060206008E735
:1030CC004FEAE856863EA8EBC6584046FDF70CFB87
:1030DC00FDF7F0F8014603904046FDF735F84FF048
:1030EC008741FDF73BF90746FDF7FEFAFDF7E2F8DD
:1030FC000146049005463846FDF726F84FF0874107
:10310C00FDF72CF900210590FDF7BCFAF0B1002178
:10311C002846FDF7B7FA002814BF01230223184AEA
:10312C0021460192022203A80092324600F02EF8AA
:10313C00BAF1000F0546BFF6ECAE236803F100436D
:10314C002360636803F10043636093E70323E6E7BE
:10315C00D80F493FE3CB1640800FC93FD00FC93F72
:10316C00434435370044353708A3852E800F494337
:10317C0084F9223F2C38000800A3852E32318D248F
:10318C00AC38000820F00040704700002DE9F04FEB
:10319C00DBB002920493649AAC4B059053F8223046
:1031AC0000910193049B013B0393029B1A1DC0F2F7
:1031BC009980DC1E48BF1C1DE41000254FF0000B4D
:1031CC00671CFB000693029B039AA3EBC707019BAA
:1031DC00A4EB020803EB0209659B1EAE03EB880A05
:1031EC004D4540F38180049A1EAB03EB82054FF0F2
:1031FC00000900230DF58C7A019A914540F39A80D1
:10320C0013460AAA02EB83030893659B03EB840322
:10321C00019C07930DF12808464625464FF0874937
:10322C005AAB03EB840353F850BC0DF58C7A002D8C
:10323C0000F385803946584600F046FA4FF0785135
:10324C000546FDF78BF800F08BFA4FF08241FDF745
:10325C0085F801462846FCF777FF0546FDF744FA4A
:10326C000646FDF727F801462846FCF76DFF002FB0
:10327C00814640F38180621E0AAB53F82250C7F19D
:10328C00080145FA01F31E448B40ED1A0AAB43F8D2
:10329C002250C7F107031D41002D7ADD0022924612
:1032AC000136944200F3AA80002F05DD012F00F0B7
:1032BC00B680022F00F0BD80022D6AD149464FF036
:1032CC007E50FCF741FF8146BAF1000F61D03946C0
:1032DC004FF07E5000F0F8F901464846FCF734FFF9
:1032EC00814656E0002468E718EB050F07D45AF81E
:1032FC002500FCF7DFFF46F8040B013570E7584654
:10330C00F9E70793059B5BF8041D53F82800FDF7BC
:10331C0025F801463046FCF719FF0646079B08F1D5
:10332C000108039A9045ECDD4AF8046B09F1010998
:10333C00043561E7AB461E464FF00008F1E74FF04D
:10334C006E515846FDF70AF8FDF7CEF9FCF7B2FFBF
:10335C0049460990FDF702F801465846FCF7F4FE81
:10336C00FDF7C2F9013D46F8040B5AF825100998EF
:10337C00FCF7ECFE83465AE705D1631E0AAA52F805
:10338C002350ED1188E74FF07C51FDF799F9054674
:10339C0090BB00214846FDF775F9002800F090809D
:1033AC000022631E01998B424ADA002A76D0013C36
:1033BC000AAB53F82430083F002BF8D039464FF0B5
:1033CC007E5000F081F9A24607464FF06E590DF57C
:1033DC008C78BAF1000F80F2A18027460022002FD2
:1033EC00C0F2CB8046A990464FF0000A184B01EB77
:1033FC00870BA4EB0709B4E002254FE758F8043B10
:10340C00BAF1000F08D123B1C3F5807348F8043C1E
:10341C0001239A46013244E7C3F1FF03F6E7621E2B
:10342C000AAB53F8223003F07F030AA941F822308B
:10343C0042E7621E0AAB53F8223003F03F03F4E775
:10344C000AA951F82310013B0A43ABE7F03B0008F3
:10345C00C43B0008013352F8041D0029FAD0049A29
:10346C001EA9A218661C01EB82051C440DF58C7973
:10347C00B442FFF6CFAE079BAB4653F82600FCF7E1
:10348C0019FF4FF0000A4FF000082860039B9A4583
:10349C0007DD49F8268004350136E9E70123089A4F
:1034AC00D9E7059B5BF8040953F82A10FCF756FF83
:1034BC0001464046FCF74AFE0AF1010A8046E5E760
:1034CC00069B029A4846991A00F0FEF84FF0874185
:1034DC008046FDF7F5F8F8B14FF06E514046FCF719
:1034EC003DFFFDF701F9FCF7E5FE4FF08741814602
:1034FC00FCF734FF01464046FCF726FEFDF7F4F8D6
:10350C000AAB43F82400484601340837FDF7ECF8C1
:10351C000AAB43F8240051E74046F7E70AAB53F8EF
:10352C002A00FCF7C7FE3946FCF718FF494648F855
:10353C002A003846FCF712FF0AF1FF3A074648E723
:10354C0053F8040B5BF8041B03920293FCF706FF81
:10355C0001464046FCF7FAFDDDE9023280460AF1ED
:10356C00010A01998A4501DCCA45E9DD5AAB03EB36
:10357C00890949F8A08C013F31E7649B022B07DCD9
:10358C00002B4EDC2ED006F007005BB0BDE8F08FB0
:10359C00649B032BF7D10DF1C80B0BEB8407B846DA
:1035AC00A246BAF1000F49DCA146B9F1010F60DC6B
:1035BC000020012C76DC329A339B002D78D10099B7
:1035CC000A600A464B609060DDE757F82410FCF760
:1035DC00BDFD013C002CF8DA0DB100F10040009B60
:1035EC001860D0E7002032AFF4E757F82810FCF74A
:1035FC00ADFD08F1FF38B8F1000FF6DAADB100F10E
:10360C000043009A014613603298FCF79DFD4FF081
:10361C00010844450BDA0DB100F10040009B5860E5
:10362C00B1E7A046002032AFE5E70346E9E757F8DB
:10363C00041FFCF78BFD08F10108EAE7D8F800300D
:10364C0058F8042C1946104602930192FCF77EFDA3
:10365C00019A014681461046FCF776FD029B0AF161
:10366C00FF3A1946FCF772FD48F80409C8F80090B7
:10367C0097E757F8043CD7F800A018465146019339
:10368C00FCF764FD019B014680461846FCF75CFD87
:10369C005146FCF75BFD47F8040909F1FF39C7F8FF
:1036AC00008082E75BF82410FCF750FD013C80E7BA
:1036BC00009902F1004203F100430A604B600A4694
:1036CC0000F100407FE700BF30F0004238B5034600
:1036DC000D4604462ED0B2F1FF4F04D30146FCF741
:1036EC0035FD034626E010F0FF4F18D14FF09841FE
:1036FC00FCF734FE174A034695420CDB0446C0F334
:10370C00C752193A4CF250318D420ADD1249184613
:10371C0061F31E0000E01149FCF720FEE1E7D20D39
:10372C00F0E75119FE29F1DC002905DD24F0FF44F6
:10373C0044EAC153184638BD11F1160F01DA074996
:10374C00E5E701F1190024F0FF444FF04C5144EA35
:10375C00C050E1E7B03CFFFFCAF249716042A20DD4
:10376C0070B5C0F3C7557F3D162D0146044620F0B9
:10377C00004626DC002D0FDA1749FCF7E7FC002188
:10378C00FCF7A8FF30B1002C23DA002E134C08BF35
:10379C004FF0004421461AE0114E2E41304216D013
:1037AC000D49FCF7D3FC0021FCF794FF0028F1D065
:1037BC00002CBEBF4FF400032B41E41824EA06048E
:1037CC00E8E7B6F1FF4F02D3FCF7C0FC0146084610
:1037DC0070BD0024DEE700BFCAF24971000080BF53
:1037EC00FFFF7F00F8B500BFF8BC08BC9E467047D1
:0C37FC00F8B500BFF8BC08BC9E46704742
:103808000000000000000000010203040607080988
:1038180002030405060708090A0B0C0D0E0F101009
:1038280001020000000FC93F000F494000CB96403D
:10383800000FC9400053FB4000CB164100ED2F415B
:10384800000F49410031624100537B41003A8A41EF
:1038580000CB9641005CA34100EDAF41007EBC4126
:10386800000FC94100A0D5410031E24100C2EE413C
:103878000053FB4100F20342003A0A42008310421F
:1038880000CB164200141D42005C234200A52942C9
:1038980000ED2F4200363642007E3C4200C74242CD
:1038A800000F4942A2000000F90000008300000058
:1038B8006E0000004E0000004400000015000000EB
:1038C80029000000FC00000027000000570000004D
:1038D800D1000000F500000034000000DD00000009
:1038E800C0000000DB00000062000000950000003E
:1038F800990000003C000000430000009000000018
:1039080041000000FE0000005100000063000000BC
:10391800AB000000DE000000BB000000C500000096
:1039280061000000B7000000240000006E000000E5
:103938003A000000420000004D000000D2000000E4
:10394800E000000006000000490000002E00000012
:10395800EA00000009000000D10000009200000009
:103968001C000000FE0000001D000000EB0000002D
:103978001C000000B100000029000000A7000000A2
:103988003E000000E8000000820000003500000052
:10399800F50000002E000000BB00000044000000FD
:1039A80084000000E90000009C0000007000000096
:1039B80026000000B40000005F0000007E00000048
:1039C800410000003900000091000000D60000000E
:1039D8003900000083000000530000003900000097
:1039E800F40000009C000000840000005F0000005C
:1039F8008B000000BD000000F90000002800000056
:103A08003B0000001F000000F800000097000000C5
:103A1800FF000000DE000000050000009800000024
:103A28000F000000EF0000002F0000001100000050
:103A38008B0000005A0000000A0000006D00000022
:103A48001F0000006D000000360000007E0000002E
:103A5800CF00000027000000CB0000000900000094
:103A6800B70000004F000000460000003F000000C3
:103A7800660000009E0000005F000000EA000000F1
:103A88002D0000007500000027000000BA000000AB
:103A9800C7000000EB000000E5000000F100000096
:103AA8007B0000003D000000070000003900000016
:103AB800F70000008A000000520000009200000099
:103AC800EA0000006B000000FB0000005F0000003F
:103AD800B10000001F0000008D0000005D00000024
:103AE800080000005600000003000000300000003D
:103AF80046000000FC0000007B0000006B00000096
:103B0800AB000000F0000000CF000000BC00000087
:103B1800200000009A000000F400000036000000B9
:103B28001D000000A9000000E30000009100000053
:103B3800610000005E000000E60000001B000000BD
:103B480008000000650000009900000085000000E2
:103B58005F00000014000000A000000068000000E2
:103B6800400000008D000000FF000000D8000000A9
:103B7800800000004D0000007300000027000000D6
:103B880031000000060000000600000015000000DB
:103B980056000000CA00000073000000A8000000E2
:103BA800C900000060000000E20000007B00000087
:103BB800C00000008C0000006B0000000000C93F3E
:103BC8000000F0390000DA370000A2330000842E2C
:103BD8000000502B0000C2270000D0220000C41FA4
:103BE8000000C61B00004417040000000700000086
:043BF80009000000C0
:043BFC00310100088B
:043C00000D010008AA
:103C04003C00000000127A001000000001000000D7
:0400000508000D9949
:00000001FF
